:020000040800F2
:10000000C832002099010008CD340008ED2900080D
:100010008D300008410B0008014B00080000000073
:1000200000000000000000000000000001010008C6
:100030009F0B000800000000450100083D45000836
:10004000B3010008B3010008B3010008B3010008C0
:10005000B3010008B3010008B3010008B3010008B0
:10006000B3010008B3010008B3010008450B000804
:10007000B3010008510B00085D0B0008690B000874
:10008000B3010008B3010008B3010008B301000880
:10009000B3010008B3010008B3010008B301000870
:1000A000B301000819460008B3010008B3010008B5
:1000B000B3010008B3010008B3010008B301000850
:1000C000B3010008B3010008B3010008D1340008EF
:1000D000B3010008A94A0008B3010008D54A000886
:1000E000B3010008B3010008B3010008DFF80CD029
:1000F00000F07CFC0048004715510008C832002081
:10010000224B19680868B0E8F00F80F30988BFF344
:100110006F8F4FF0000080F311884EF00D0E704786
:100120000000000006480068006880F3088862B696
:1001300061B6BFF34F8FBFF36F8F00DF00BF00BF0B
:1001400008ED00E0EFF30980BFF36F8F0F4B1A68E3
:1001500020E9F00F106008B54FF0500080F31188CF
:10016000BFF34F8FBFF36F8F06F014F84FF000000E
:1001700080F31188BDE8084019680868B0E8F00FFE
:1001800080F30988BFF36F8F704700BF880000209D
:10019000EFF3058070470000064880470648004797
:1001A000FEE7FEE7FEE7FEE7FEE7FEE7FEE7FEE727
:1001B000FEE7FEE7D1450008ED000008202A04DB39
:1001C000203A21FA02F00021704721FA02F3D040D0
:1001D000C2F12002914008431946704740EA0103EA
:1001E0009B0703D009E008C9121F08C0042AFAD2ED
:1001F00003E011F8013B00F8013B521EF9D27047B1
:10020000D2B201E000F8012B491EFBD27047002258
:10021000F6E710B513460A4604461946FFF7F0FF05
:10022000204610BDF0B480EA0102D40F4200B2EBC8
:10023000410F02D20246084611464A0042D0C30D81
:10024000DDB2C1F3C752AD1A202D35DAC1F3160164
:1002500041F4000204B15242C5F1200602FA06F14F
:100260002A411044B3EBD05F23D0C4B1012DA0EBE1
:10027000C35009DCF0BC4FF0004202EAC352DBB2CB
:1002800000F5000000F0B8BA400000F1807000EB0B
:10029000C350A0F1807040EAD170490009E04908DC
:1002A00041EAC071A0EBC35000F50000400800EB2C
:1002B000C350F0BC00F097BA6142012202EB410149
:1002C000001BF6E7F0BC704781F00041AAE780F020
:1002D0000040A7E780EA010210B502F000434000A9
:1002E00022D04A001FD0010E01EB1261C0F356006C
:1002F000C2F3560240F4000042F40002A0FB0220C8
:1003000000047F39140400D0401C50EA124001D48C
:100310004000491EC2B20C0604EBD010401C40083D
:10032000802A02D003E0002010BD20F00100002947
:1003300000DA0020184310BD420005D0C0F3C752B8
:100340005242914201DC0020704700EBC1507047DF
:100350002DE9FE4F804681EA0300C00F0C46009055
:1003600021F0004123F00045B8EB0200A94105D27D
:100370004046214690461C460B46024623F000406C
:10038000104347D0270DC7F30A00C3F30A51029068
:10039000401A019040286BDAC3F3130040F4801B2D
:1003A0000098924620B10023D2EB030A63EB0B0BBB
:1003B00001985946C0F14002504600F0F3F9064654
:1003C0000D4650465946019A00F0FBF910EB080023
:1003D0006141002487EA115284EAE7731A4340D04E
:1003E000009A62B3019A012A4FEA075215DC001BFA
:1003F00061EB02014FF0004202EA0752CDE90042F0
:10040000001C41F5801132462B4600F032FA03B051
:10041000BDE8F08F40462146F9E7001B61EB020181
:10042000001C41F5801300185B412018A2F500174D
:1004300047EB030140EAD570B6196D4111E06D0834
:100440004FEA360645EAC0754FEA0752001B61EBDA
:100450000201001C41F5801149084FEA30000019E3
:10046000514132462B4603B0BDE8F04F00F0F2B9DF
:100470000098012240000023D0EB020263EBE073FE
:10048000009821464FEAE074B8EB000061EB0401EC
:10049000E9E783F000435BE781F0004158E72DE98D
:1004A000FE4F81EA030404F0004421F0004100946F
:1004B0004FF0000B23F0004350EA01045ED052EAF3
:1004C00003045BD0C3F30A54C1F30A552C44A4F2CD
:1004D000F3340194A0FB0254C1F3130141F48011E1
:1004E000C3F3130343F4801301FB024400FB034EE8
:1004F000840A970A44EA815447EA8357A4FB0768B1
:1005000002958D0A05FB07854FEA932C04FB0C54DA
:100510002705029D4FEA065847EA1637B5EB08054E
:100520006EEB070C870E920E47EA811742EA8312A0
:10053000A7FB0201B6EB0B0164EB00042B0D43EAB1
:100540000C335E1844EB1C50DA465146E7FB0201BF
:10055000C5F313044FEA0B3343EA14534FEA043252
:10056000019C43EA0603A4F10C040294009CCDE92B
:1005700000B400F07EF903B0BDE8F08F0020014622
:10058000F9E770B521F0004303430CD0C1F30A55DD
:100590000024D5EB040564EB0403D617AD1AB34170
:1005A00002DB0020014670BD201841EB025170BDF6
:1005B000C10F80EAE0700844CA079623002100F0CA
:1005C0001BB996230022114600F016B90EB5C10FD3
:1005D00080EAE0700844CA07002140F233438DE806
:1005E0000E000A460B4600F044F903B000BD0EB5FC
:1005F00040F2334102910021CDE900110A460B4639
:1006000000F037F903B000BD00F0004220F00040D8
:10061000C10DC0F3160040F400007F2901DA00206C
:100620007047962903DCC1F19601C84001E0963974
:100630008840002AF4D04042704720F00040C10DAD
:10064000C0F3160040F400007F2901DA0020704753
:10065000962903DCC1F19601C8407047963988405D
:10066000704770B5C1F30A5201F000450024C1F390
:10067000130140F2FF3341F480119A4201DA002065
:1006800070BD40F233439A42A2F2334203DC52423D
:10069000FFF794FD00E090402C43F1D0404270BD44
:1006A000C1F30A5210B5C1F3130140F2FF3341F414
:1006B00080119A4201DA002010BD40F233439A4281
:1006C000A2F2334203DC5242FFF778FD10BD9040A6
:1006D00010BD00F0004230F000400AD0C10D01F51D
:1006E0006071C0F3160042EA0151C208400711438D
:1006F000704700200146704730B5041E71F10004B8
:1007000004DB4FF00044404264EB0101141E73F11E
:10071000000405DB1C464FF00043524263EB040328
:100720008B4208BF824230BD30B5041E71F1000417
:1007300004DB4FF00044404264EB0101141E73F1EE
:10074000000405DB1C464FF00043524263EB0403F8
:10075000994208BF904230BD01F0004330B421F00F
:10076000004150EA010206D00A0DA2F56072C1F301
:100770001301002A02DC30BC00207047440F44EA19
:10078000C104C100E01830BC00EBC25000F02BB82F
:10079000002801DBC0F10040002901DBC1F100416C
:1007A00088427047202A04DB203A00FA02F1002038
:1007B00070479140C2F1200320FA03F3194390409F
:1007C0007047202A06DBCB17203A41FA02F043EAB1
:1007D000E07306E041FA02F3D040C2F120029140FA
:1007E0000843194670470029A8BF7047401C4900BC
:1007F00008BF20F00100704710B4B0FA80FC00FA86
:100800000CF050EA010404BF10BC704749B1CCF1B0
:10081000200421FA04F411FA0CF118BF012121433C
:100820000843A3EB0C01CB1D4FEA00614FEA1020F7
:1008300042BF002010BC704700EBC3501044002999
:10084000A4BF10BC7047401C490008BF20F0010045
:1008500010BC704710B5141E73F1000408DA401C78
:1008600041F1000192185B411A4301D120F00100CF
:1008700010BD2DE9F04D92469B4611B1B1FA81F2BF
:1008800002E0B0FA80F220329046FFF78BFF044678
:100890000F4640EA0A0041EA0B0153465A46084314
:1008A00013D0114653EA010019D0C8F14002504656
:1008B000FFF784FC05460E46504659464246FFF770
:1008C00071FF084305D0012004E020463946BDE809
:1008D000F08D0020054346EAE0762C4337430A9822
:1008E0006305E40AA0EB08000022FD0A44EA47542D
:1008F0000A3002D500200146E9E7010510196941D7
:10090000DDE9084500196941BDE8F04DA2E72DE990
:10091000F04D81EA030404F0004B21F00045144639
:100920004FF0000A23F0004150EA050220D054EABB
:1009300001021DD0C5F30A570246C5F31303C1F3E4
:100940001300C1F30A5640F4801543F48013A7EB5B
:100950000608101BD64608F2FD3873EB050002D3DB
:1009600008F1010801E092185B41B8F1000F03DAC9
:1009700000200146BDE8F08D00204FF480110646AE
:1009800084460EE0171B73EB050705D3121B63EBC0
:10099000050306434CEA010C49084FEA300092185F
:1009A0005B4150EA0107EDD152EA030012D082EA1E
:1009B000040083EA0501084305D0101BAB4106D2B1
:1009C0000122002306E000224FF0004302E06FF016
:1009D000010253101AEB06004CEB085110EB0A0011
:1009E00041EB0B01BDE8F04DFFF734BF064C074D5E
:1009F00006E0E06840F0010394E8070098471034EF
:100A0000AC42F6D3FFF776FB0873000828730008A2
:100A100070B5044600688168C943C9071CD1816864
:100A200021F00101816000F06FFD05460FE000BF7D
:100A300000F06AFD401B022809D9A06A40F01000AE
:100A4000A062E06A40F00100E062012070BD206811
:100A50008068C043C007EBD0002070BD10B50146D0
:100A6000406A826A12F0500F05D0006A026BBDE83E
:100A7000104008461047816A41F4007181620168A4
:100A80008968C1F3424107290CD1017B51B9816AC0
:100A900021F480718162816AC90403D4816A41F0C2
:100AA0000101816200F060F910BD10B5406A816AF1
:100AB00041F040018162C16A41F00401C16200F06D
:100AC00055F910BD10B5406A00F04FF910BD000097
:100AD000F8B500260446009600688168C943C90736
:100AE00028D0816841F001018160134813490068F2
:100AF000B0FBF1F000E0401E00900028FBD100F0B8
:100B000003FD054611E000BF00F0FEFC401B02287B
:100B10000BD9A06A40F01000A062E06A40F001002A
:100B2000E06284F824600120F8BD20688068C0433A
:100B3000C007E9D10020F8BD8400002040420F002A
:100B4000FEE70000014800F0BBBA000030010020C1
:100B5000014800F0B5BA0000880C0020014800F000
:100B6000AFBA0000000C0020014800F0A9BA000054
:100B7000440C002030B590F840500124AC40C56BC7
:100B80006C60046863604368102B036803D099604D
:100B90000068C26030BD9A600068C16030BD7047B7
:100BA00070470000F8B500250446009590F8240031
:100BB000012808D0012084F824002046FFF728FFF0
:100BC000060002D04BE00220F8BDA06A20F4885055
:100BD00040F00200A062022000F084FD2249096872
:100BE000B1FBF0F0400000E0401E00900028FBD177
:100BF0002046FFF76DFF2068816841F008018160A1
:100C000000F082FC074604E000F07EFCC01B0A28CE
:100C100011D8206880680007F6D42068816841F008
:100C20000401816000F070FC07460EE000F06CFCEF
:100C3000C01B0A2809D9A06A20F0020040F0100069
:100C4000A06284F824500120F8BD20688068400725
:100C5000ECD4A06A20F0020040F00100A06284F809
:100C600024503046F8BD000084000020F8B5002470
:100C7000009490F824202546012A12D0012280F801
:100C800024204A681F23072A0DD20668776B521E5C
:100C900002EB820293409F430B6893401F437763AC
:100CA00019E00220F8BD06680D2A0AD2376BD21F60
:100CB00002EB820293409F430B6893401F433763CC
:100CC00009E0F76A0D3A02EB820293409F430B68FA
:100CD00093401F43F7620A68072306680A2A0AD36B
:100CE000F7680A3A02EB420293409F438B689340B5
:100CF0001F43F76008E0376902EB420293409F43CD
:100D00008B6893401F4337610A68102A01D0112A6B
:100D100020D1124B02689A4217D193681B0219D452
:100D2000936843F4000393600968102912D10C49B9
:100D30000C4A0968B1FBF2F101EB8101490000E0C6
:100D4000491E00910029FBD104E0816A41F0200195
:100D50008162012480F824502046F8BD002401401F
:100D60008400002040420F00704770477047000029
:100D70002DE9F0414FF0000704003D467ED0A06A07
:100D8000002628B9E66284F82460204600F07EF848
:100D90002046FFF73DFEA16AC90600D420B1A06A33
:100DA00040F01000A06269E0A16A21F4885141F08E
:100DB0000201A1626268E169237B0A4347EA4301B9
:100DC0000A43A1684FF48077B94209D0012907D0BE
:100DD0005FF0000194F814C0BCF1010F02D00AE0EA
:100DE0003946F7E7F3B1A36A43F02003A362E36A4D
:100DF00043F00103E3622368D3F804C02CF4694C88
:100E00004CEA010CC3F804C021688B68DFF870C09D
:100E100003EA0C0313438B60A168B9420BD001298C
:100E200009D00CE0DFF85CC0A3690CEB43330B4343
:100E300043F40061DFE7218A0D05A5F580152168DF
:100E4000CB6A23F470032B43CB62216889680E4B75
:100E50001940914208D1E662A16A21F0020141F0F5
:100E60000101A162BDE8F081A06A20F0020040F01B
:100E70001000A062E06A40F00100E0620120F1E7AA
:100E8000FDF7E1FF00E0FFFFFE0E1FFF70B586B02B
:100E900000260546009601960296039600681A49B8
:100EA00088422FD11949886940F4007088618869A7
:100EB00000F400700490886940F00400886188693B
:100EC000694600F004000490302000900320019057
:100ED0000F4800F017FA104C0E48C4E900068020B5
:100EE000C4E9026040002061800060612020A061B0
:100EF000C001E061204600F08DF908B1FFF750FE17
:100F00002C62656206B070BD0024014000100240F2
:100F10000008014008000240300100202DE9F047A0
:100F2000894604463B4900683B4F0E1D9046884267
:100F300001D0B84207D1306810F4702F03D00125DA
:100F40002846BDE8F08794F8240001280CD0012041
:100F500084F824002046FFF7BBFD05004FF0000099
:100F600004D084F82400EBE70220EAE7A16A40F607
:100F70000162914341F48071A1622168B94218D1A4
:100F8000326812F4702F14D0A16A41F48011A1626A
:100F90003168490505D5A16A21F4005141F4805119
:100FA000A162A16AC9040AD5E16A21F00601E162E1
:100FB00006E0A26A22F48012A2624968E9E7E062D0
:100FC00084F82400216A15488862216A1448C8629E
:100FD000216A1448086321686FF0020008602068E5
:100FE000816841F480718160216843464A464C31F2
:100FF000206A00F03DF920688168C1F34241072969
:10100000816803D041F48011816099E741F4A00127
:10101000FAE7000000240140002801405D0A0008B2
:10102000C50A0008AB0A000810B590F8211000248A
:10103000022903D00421816301243DE001680A688C
:1010400022F00E020A6001680A6822F001020A60BA
:101050001A4A0168914201D1012121E0174A143254
:10106000914201D110211BE0144A2832914201D152
:10107000891515E0114A3C32914201D189140FE0E3
:101080000E4A5032914202D14FF4803108E00B4AAF
:101090006432914202D14FF4801101E04FF080712F
:1010A000064A083A5160012180F82110002180F899
:1010B0002010416B01B18847204610BD0800024056
:1010C0002DE9F05FC16B0C6801680B68D0F840C077
:1010D000042202FA0CF2494DDFF824A1494E4A4F8E
:1010E000DFF828B1DFF828E122422CD05A072AD5B0
:1010F0000A68920603D40A6822F004020A600168B2
:10110000A94201D1042219E0514501D1402215E044
:10111000B14202D14FF4806210E0B94202D14FF4E3
:1011200080420BE0594502D14FF4802206E0714520
:1011300002D14FF4800201E04FF080622F4908395C
:101140004A60C16A3BE04FF0020808FA0CF818EA5E
:10115000040F4FF000094FF0010235D05FEA8378A9
:1011600032D50B689B0605D40B6823F00A030B608D
:1011700080F821200168A94201D1022219E05145DD
:1011800001D1202215E0B14202D14FF4007210E0EB
:10119000B94202D14FF400520BE0594502D14FF44D
:1011A000003206E0714502D14FF4001201E04FF029
:1011B0000072124908394A6080F82090816A00293B
:1011C0001AD0BDE8F05F0847082505FA0CF525425E
:1011D00012D01B0710D50B6823F00E030B6090F89C
:1011E0004010C36B02FA01F15960826380F821203C
:1011F00080F82090016BE2E7BDE8F09F0800024014
:101200001C000240300002404400024058000240EE
:101210006C00024030B528B308C8134914221944A1
:10122000B1FBF2F18900C16310498163022141776A
:101230001A6843F6F0718A43D0E900142143D0E9DB
:1012400002452C43214304692143446921438469B5
:101250002143114319600021416301224277017744
:10126000084630BD012030BDF8FFFDBF0000024040
:1012700070B5044690F82000002501280CD001200C
:1012800084F8200094F821600020012E06D084F814
:1012900020000225284670BD022070BD022684F879
:1012A0002160A0632068066826F0010606602046DB
:1012B000FFF760FCE06A00282068016802D041F076
:1012C0000E0106E021F0040101602068016841F090
:1012D0000A0101602068016841F001010160D9E75D
:1012E00070B5044600F010F90546601C02D00448B1
:1012F0000078044400F008F9401BA042FAD370BD06
:10130000780000202DE9F84FDFF8B891002409F1AA
:10131000040A0AF1040B23460F270BF1040EC9E05F
:101320000125A5402A40AA427DD1674ED1F804C0CC
:10133000ACEB0608B44532D014DCBCF1030F3AD054
:1013400009DCBCF1000F2AD0BCF1010F1CD0BCF1AC
:10135000020F31D11DE0BCF1110F17D0BCF1120FFB
:101360002AD119E0B8F5881F19D006DCB8F5803FFE
:1013700015D0B8F5801F1FD111E0B8F5001F0ED0B1
:10138000B8F5041F18D10AE0CB6815E0CB681B1D27
:1013900012E0CB6808330FE0CB680C330CE08B68AD
:1013A0002BB1012B4FF0080303D0456104E0042367
:1013B00002E0056100E00023FF2A01D8064601E0B3
:1013C00000F104064FEA840501D9A5F12005D6F8FD
:1013D000008007FA05FC28EA0C0803FA05F548EA3C
:1013E0000508C6F800804D68ED0062D5374DAE693E
:1013F00046F00106AE61AD6924F0030605F0010573
:101400000095334D06EB050CDCF80850A607360FA7
:1014100007FA06F825EA0805DFF8B880404503D149
:101420004FF0000817E044E0DFF8AC80404502D1FF
:101430004FF001080FE0DFF8A480404502D14FF0E3
:10144000020808E0DFF89880404502D14FF0030819
:1014500001E04FF0040808FA06F848EA0508CCF85D
:1014600008804D68D9F80060ED034D4601D516435C
:1014700000E096432E604D68DAF80060AD035546F3
:1014800001D5164300E096432E604D68DBF80060FE
:10149000ED025D4601D5164300E096432E604D688F
:1014A000DEF80060AD02754601D5164300E09643B4
:1014B0002E60641C0D682A46E5407FF431AFBDE81C
:1014C000F88F0000000401400000111000100240DD
:1014D0000000014000080140000C014000100140E4
:1014E000001401408068084000D001207047C268A5
:1014F0000A4201D041617047016170470AB1016140
:1015000070470904FBE7000001488068704700004D
:101510007800002070B5040011D021684CF6CC4052
:101520000860216845F255500860D4E90001416027
:101530002168A0688860FFF7E7FF054609E0012001
:1015400070BD00BFFFF7E0FF401B302801D903202A
:1015500070BD2068C0680028F4D121684AF6AA202E
:101560000860002070BD00684AF6AA2101600020D2
:10157000704700000248816802781144816070471A
:1015800078000020074810B5016841F010010160A3
:10159000032000F095F8002000F006F800F03EF877
:1015A000002010BD0020024000B5014687B0002297
:1015B000192000F065F8192000F054F813488169EB
:1015C00041F400618161806905A900F40060069022
:1015D000684600F0F7F900F025FA0D490D4AB0FB16
:1015E000F1F10D48491E0260416040F2E7320021EE
:1015F000C0E90321816000F045FD10B1012007B072
:1016000000BD054800F05AFDF9E700000010024057
:1016100040420F00002C0140800A00200F4808B50E
:10162000816941F001018161816901F0010100914D
:10163000C16941F08051C161C069002200F0805051
:1016400000900F21901E00F01BF80548416821F022
:10165000E06141F00071416008BD000000100240EF
:1016600000000140002809DB00F01F020121914029
:101670004009800000F1E020C0F800117047000030
:10168000F0B40E4B1B680C46C3F30223C3F10705ED
:10169000042D00D90425191D072901D2002300E0DB
:1016A000DB1E012606FA05F1491E214099409E40A5
:1016B000761E16403143F0BC03F056BB0CED00E043
:1016C000064900F0070208684FF6FF03184040EA99
:1016D0000220034A10430860704700000CED00E050
:1016E0000000FA0510B529A401461DCC86B08DE88E
:1016F0001D002AA02A4C006804900020012923D054
:1017000002293AD010291DD161682268D20119D569
:10171000C1F38342C9031DF8020009D5616804AA18
:10172000C1F34041515C1F4AB2FBF1F1484301E073
:101730001D4948436168490204D440005FF0030139
:10174000B0FBF1F006B010BD226AC2F301210129FD
:1017500003D1920701D5C803F4E7022905D1626AD3
:10176000920702D549F64040ECE70329EAD1216807
:101770008903E7D54FF22440E4E700F053F96168AC
:10178000C1F38131491C4900DAE700000203040576
:10179000060708090A0B0C0D0E0F101001020000BD
:1017A0000010024000127A0000093D002DE9F843C4
:1017B00005460078354CC00754D0E0690026C000CB
:1017C00008D4E06940F08050E061E069012600F053
:1017D000805000902E480168C90512D401688046E7
:1017E00041F480710160FFF78FFE074605E000BFFE
:1017F000FFF78AFEC01B642823D8D8F80000C00574
:10180000F6D5206A10F4407021D0A98801F4407107
:1018100081421CD0206A1F49012220F440700A60D6
:1018200000220A602062C00711D0FFF76DFE074654
:1018300041F2883808E000BFFFF766FEC11B414552
:1018400002D90320BDE8F883206A8007F4D5206A16
:10185000696820F44070084320621EB1E06920F0FE
:101860008050E0612878800705D56068A96820F479
:101870004040084360602878C00605D56068E96884
:1018800020F48000084360600020DBE70010024085
:1018900000700040400442422DE9F0470F46050029
:1018A00061D0434E306800F00700B84209D230687A
:1018B00020F0070038433060306800F00700B8427D
:1018C00051D128683B4C810712D5400703D5606889
:1018D00040F4E06060602878000703D5606840F459
:1018E000605060606068A96820F0F00008436060A4
:1018F0002878C00728D06868012810D021680228FD
:1019000010D0890700292EDA616821F00301014314
:101910006160FFF7F9FD804641F288390DE02168EA
:101920008903EFE78901EDE7FFF7EEFDA0EB080182
:10193000494502D90320BDE8F0876068696800F076
:101940000C00B0EB810FEFD1306800F00700B84217
:101950000BD9306820F0070038433060306800F061
:101960000700B84201D00120E5E72878400705D5F7
:101970006068E96820F4E060084360602878000748
:1019800006D56068296920F4605040EAC1006060B3
:1019900000F058F86168084AC1F30311515CC8406F
:1019A0000649086006480068FFF7FEFD0020C2E710
:1019B00000200240001002401C7200088400002039
:1019C0007C0000200F2202600C4A536803F00303DE
:1019D0004360536803F0F0038360536803F4E063EB
:1019E000C36052684FF4E06303EAD2020261044824
:1019F000006800F007000860704700000010024017
:101A0000002002400448054900684968044AC1F3BF
:101A10000221515CC8407047840000200010024041
:101A20002C7200080448054900684968044AC1F35B
:101A3000C221515CC8407047840000200010024061
:101A40002C72000812A185B00FC98DE80F0014A0F8
:101A5000144A006804905168134801F00C03042BE9
:101A600010D0082B0ED1C1F38343C9031DF8030026
:101A70000AD5516804AAC1F34041515C0A4A504357
:101A8000B0FBF1F005B0704708494843FAE70000A1
:101A900002030405060708090A0B0C0D0E0F1010AF
:101AA000010200000010024000127A0000093D000F
:101AB0002DE9F84F040070D02078C04DC00749D000
:101AC0006868C0F38100012807D06868C0F381000E
:101AD000022809D16868C00306D52868800339D573
:101AE00060680028E7D035E06068B0F5803F0BD033
:101AF00010B1B0F5A02F11D0286820F480302860F4
:101B0000286820F4802002E0286840F480302860B3
:101B1000606890B1FFF7F8FC06460AE0286840F4D8
:101B200080202860F0E700BFFFF7EEFC801B6428F0
:101B300073D828688003F7D50CE0FFF7E5FC06466C
:101B400005E000BFFFF7E0FC801B6428F0D82868A0
:101B50008003F7D420789A4E80074FF001094FF0A8
:101B6000000839D5686810F00C0F07D06868C0F31A
:101B70008100022809D16868C00306D4286880075C
:101B800014D52069012808D110E02069B0B1C6F849
:101B90000090FFF7B9FC074605E00AE1FFF7B4FC47
:101BA000C01B0228C4D828688007F7D52868616957
:101BB00020F0F80040EAC10028600DE0C6F800807F
:101BC000FFF7A2FC074604E0FFF79EFCC01B0228BB
:101BD00023D828688007F7D4207800072CD57948C7
:101BE000A169D9B1C0F80090FFF78EFC074604E068
:101BF000FFF78AFCC01B02280FD8686A8007F7D558
:101C000071484FF4FA510068B0FBF1F0009000BF4A
:101C10000098411E0091FAD20EE080E0C0F80080EA
:101C2000FFF772FC074604E0FFF76EFCC01B0228BA
:101C300075D8686A8007F7D42078400760D5E869CE
:101C40000027C00008D4E86940F08050E861E869E6
:101C5000012700F0805000905C480168C90513D44A
:101C60000168834641F480710160FFF74DFC8246B4
:101C700006E000BFFFF748FCA0EB0A0064284ED83E
:101C8000DBF80000C005F5D5E06801280AD008B1EE
:101C9000052813D0286A20F001002862286A20F065
:101CA000040002E0286A40F001002862E06841F286
:101CB000883B98B1FFF728FC82460BE0286A40F089
:101CC00004002862EEE700BFFFF71EFCA0EB0A014C
:101CD00059455AD8286A8007F6D50CE0FFF714FC5E
:101CE000824605E0FFF710FCA0EB0A0159454CD8ED
:101CF000286A8007F6D41FB1E86920F08050E861B7
:101D0000E06988B36968C1F38101022944D00228DF
:101D1000C6F8608004D0FFF7F7FB044638E034E0F3
:101D2000FFF7F2FB074604E0FFF7EEFBC01B0228BB
:101D30002BD828688001F7D4206AB0F5803F05D100
:101D40006868A16820F4003008436860D4E908019D
:101D50000843696821F4741108436860C6F860900C
:101D6000FFF7D2FB044606E025E000BFFFF7CCFBFF
:101D7000001B022809D828688001F7D51BE000BFA6
:101D8000FFF7C2FB001B022802D90320BDE8F88F31
:101D900028688001F4D40EE00128F7D06868226A30
:101DA00000F48031914204D1616A00F470108842DD
:101DB00001D00120EAE70020E8E70000001002401F
:101DC0000000424280044242840000200070004033
:101DD0007047000038B50446006842688168C9430E
:101DE0004B0606D5CB0704D1D3435B0601D4216C47
:101DF00005E08B0708D4D3431B0605D4616C01B002
:101E00002046BDE8304008478B0601D54B0646D436
:101E1000D3439B0643D44B060AD494F85130032B8A
:101E20003ED0636D43F004036365C3688368009329
:101E3000890609D4616D41F00101616581680091F5
:101E4000016821F040010160606D002827D0206802
:101E5000416821F0E0014160012084F851009007C1
:101E600022D02068416821F003014160104DE06CF0
:101E700040B14563E06CFFF7D7F818B1606D40F0F2
:101E800040006065A06C002809D04563A06CFFF796
:101E9000CBF8002803D0606D40F04000606538BD8D
:101EA000C1688068009038BD2046FFF791FF38BDBB
:101EB0005935000870B5040005D00025A56294F8D6
:101EC000510010B106E0012070BD84F8505020464A
:101ED00000F02EF8022084F851002068016821F0FB
:101EE00040010160D4E901010843D4E90312114320
:101EF000084361690843218B01F400710843E169DB
:101F00000843216A0843A16A084321680860A06960
:101F1000042101EA1040216848602068C16921F469
:101F20000061C1616565012084F85100002070BD29
:101F300000B585B0002100910191029103910068E4
:101F40001749884229D11748816941F4805181613C
:101F5000816901F480510491816941F00801816136
:101F60008069694600F00800049028200090022053
:101F70000190032003900C48FFF7C4F90B48416817
:101F800041F0E06141F0010141600022114623204F
:101F9000FFF776FB2320FFF765FB05B000BD0000CF
:101FA0000030014000100240000C014000000140E0
:101FB00030B590F850300024012B0BD0012380F86D
:101FC0005030002341B13AB190F85150012D05D065
:101FD00002242AE0022030BD012426E0032580F8F7
:101FE0005150436501638286C28683638387C387BA
:101FF0000364C16809B10F4900E00F494164816879
:10200000B1F5004F04D101680A6842F480420A60C9
:1020100001684A6842F0A0024A6001680A685206F4
:1020200003D40A6842F040020A6080F8503020462B
:1020300030BD000089350008A93500087047704799
:10204000704770B590F83C20012A19D0012400F89F
:102050003C4F0222427050F83C3C5A689D6822F086
:1020600070060A684968324325F0800529435A60A2
:1020700050F83C2C9160447000210170084670BDFE
:10208000022070BD10B5040003D094F83D0010B1DB
:1020900007E0012010BD002084F83C00204600F03D
:1020A0000CF8022084F83D00211D206802F0BAFAE5
:1020B000012084F83D00002010BD70470168CA6807
:1020C00042F00102CA600068816801F00701062938
:1020D00003D0016841F001010160002070472DE943
:1020E000F0410D46040003D094F83D0018B108E01B
:1020F0000120BDE8F081002084F83C00204600F07B
:102100003BF8022084F83D002068816844F2070211
:1021100091438160211D206802F084FA2268906852
:102120009169166A2B68AF69034340F2033081431B
:1021300041EA0721A868EF6908434FF6FC4188434C
:10214000E96840EA0720014328692F6A000140EA54
:102150000730084369686D6926F0220646EA0515CE
:10216000294393602268906120680162012084F80D
:102170003D000020BDE7000000B585B000210091C2
:1021800001910291039100680D49884216D10D48D2
:10219000C16941F00401C161C16901F00401049108
:1021A000816941F0080181618069694600F0080099
:1021B0000490C02000900448FFF7A4F805B000BDCB
:1021C0000008004000100240000C014010B5044619
:1021D000006891B1042904D00122002102F058FACC
:1021E000206801225FF0040102F052FA20680168C1
:1021F00041F001010160002010BD01220021F3E740
:10220000704770B50446006801694FF00005C94386
:10221000890715D4C168C943890711D4E91E016132
:1022200001202077206880698007204602D0FFF7D0
:10223000E7FF04E000F0E0F8204600F07FF92577A2
:1022400020680169C943490717D4C168C9434907D0
:1022500013D46FF0040101610220207720688069A7
:1022600010F4407F204602D0FFF7CAFF04E000F0E0
:10227000C3F8204600F062F9257720680169C94358
:10228000090716D4C168C943090712D46FF00801C1
:102290000161042020772068C0698007204602D0B1
:1022A000FFF7AEFF04E000F0A7F8204600F046F983
:1022B000257720680169C943C90617D4C168C94395
:1022C000C90613D46FF0100101610820207720683F
:1022D000C06910F4407F204602D0FFF791FF04E070
:1022E00000F08AF8204600F029F925772068016976
:1022F000C943C90708D1C168C943C90704D1891EA8
:102300000161204600F062F920680169C9430906AD
:1023100009D4C168C943090605D46FF08001016181
:102320002046FFF78CFE20680169C943490609D49D
:10233000C168C943490605D46FF0400101612046D8
:1023400000F04EF920680169C94389060BD4C168C1
:10235000C943890607D46FF0200101612046BDE81A
:102360007040FFF76DBE70BD10B586B000210091C2
:1023700001910291039102681B4902241B48B2F1AA
:10238000804F23D01A4B9A421ED18A6942F0040230
:102390008A618A6902F0040204928A6942F00802A2
:1023A0008A618969039401F008010491C021CDE993
:1023B00000146946FEF7A6FF0120CDE90004694636
:1023C0000C480394FEF79EFF06B010BD8A6942F0E8
:1023D00004028A618969039401F0040104910F21C8
:1023E000CDE900146946EDE7001002400008014005
:1023F00000040040000C0140704770B5044690F89E
:102400003C000D4601280DD0012684F83C600220D6
:1024100084F83D0042B1042A18D0082A2AD00C2A98
:102420004DD139E0022070BD206802F03FF92068EC
:10243000816941F0080181612068816921F004010E
:102440008161206881692A69114311E0206802F0E6
:1024500055F92068816941F40061816120688169D2
:1024600021F480618161206881692A6941EA022141
:10247000816124E0206802F06DF92068C16941F0B3
:102480000801C1612068C16921F00401C1612068AF
:10249000C1692A69114311E0206802F087F92068B8
:1024A000C16941F40061C1612068C16921F48061A2
:1024B000C1612068C1692A6941EA0221C16184F8C9
:1024C0003D60002084F83C0070BD10B5040003D0CE
:1024D00094F83D0010B107E0012010BD002084F801
:1024E0003C00204600F00CF8022084F83D00211D3D
:1024F000206802F097F8012084F83D00002010BD0C
:1025000008B501680B48B1F1804F0BD00A4A9142DF
:1025100007D1C16941F00201C161C06900F0020048
:10252000009008BDC16941F00101C161C06900F0BE
:102530000100F5E700100240000400407047000071
:1025400010B504460068012202F0A2F8094920688B
:10255000884203D1416C41F40041416420688168A4
:1025600001F00701062903D0016841F00101016073
:10257000002010BD002C014010B504460068002268
:1025800002F086F8104B41F2111120688A1098422F
:1025900009D1036A0B4206D1036A134203D1436C8B
:1025A00023F4004343642068036A0B4206D1016AA6
:1025B000114203D1016821F001010160012084F87A
:1025C0003D00002010BD0000002C014000680349C0
:1025D000884201D1FEF7CEBF70470000002C0140B9
:1025E0007047704770B5026804461068D168536937
:1025F00010F00F0F50D003F0010501F49076354331
:102600005DD0C20705D0CA0503D5E26B42F00102D6
:10261000E263420705D5DA0703D0E26B42F002021B
:10262000E263820705D5DA0703D0E26B42F00402C9
:10263000E263020705D5DA0703D0E26B42F0080235
:10264000E263E26B002A33D0800604D5880602D507
:10265000204602F050F920684069E16BC0F3801019
:10266000090700D428B3204602F02EF920684169FA
:1026700049061AD5416921F040014161606BA0B162
:102680001B494163606BFEF7CFFC002810D0606BE4
:10269000416BBDE870400847830610D58B060ED508
:1026A0002046BDE8704002F026B92046FFF799FFAA
:1026B00070BD2046FFF795FF0020E06370BD030664
:1026C00006D50B0604D52046BDE8704002F0BAB925
:1026D0004006F3D54806F1D5D168204621F04001E7
:1026E000D160202184F8391000F07EF970BD00001F
:1026F000F147000870B5040004D094F839000025B3
:1027000010B106E0012070BD84F83850204600F07A
:1027100023F8242084F839002068C16821F400518E
:10272000C160204602F032F92068016921F490412D
:1027300001612068416921F02A0141612068C16876
:1027400041F40051C160E563202084F8390084F829
:102750003A00002070BD00002DE9F04385B0002450
:102760000094019402940394064603685148DFF8EC
:1027700040C102210322051580274FF0200963453F
:1027800050D1836943F480438361836903F48043B8
:102790000493836943F0040383618069DFF818813F
:1027A00000F0040004900802CDE90001039269469C
:1027B0004046FEF7A7FDCDE9005469464046029425
:1027C000FEF7A0FD3E4D3D484FF4005801C51020D6
:1027D00091C53B4845F810496C61C5E90648FEF7CC
:1027E00019FD08B1FEF7DCF935636E62344D3348EC
:1027F00044351430C5E90004C5E90247C5F81C801A
:102800002C61C5E905492846FEF704FD08B1FEF72D
:10281000C7F975630022052125206E62FEF730FF9F
:1028200025203FE0DFF89CC063453DD1C36943F4F8
:102830008023C361C36903F480230493836943F055
:10284000080383618069CDE9005100F00800CDE9FB
:1028500003201D4D69462846FEF754FDE814CDE9D6
:102860000004694628460294FEF74CFD144D1348B7
:1028700088351438C5E90004C5E902472C614FF4D6
:1028800040506C61C5E906902846FEF7C3FC08B1CC
:10289000FEF786F975630022052127206E62FEF798
:1028A000EFFE2720FEF7DEFE05B0BDE8F083000056
:1028B000003801400010024000080140440002407E
:1028C000000C002000480040000C0140F8B5044610
:1028D00090F83A0020283CD1C1B3BAB394F838003C
:1028E000012836D0012084F83800A162A285002595
:1028F000E563222084F83A00636B17489862636BA3
:102900001648D862636B16481863606B13464563BC
:102910000846666B216802463046091DFEF7A8FC92
:10292000206801684168009184F83850C16841F41A
:102930008071C1602068416941F0010141612068F6
:10294000416941F0400141610020F8BDFFE70120ED
:10295000FBE70220F9E700004B4800088748000821
:10296000014800087047704770B5044690F8390078
:10297000202830D169B362B394F8380001282AD0F6
:10298000012084F838002162A284E2840025E563F6
:10299000212084F83900236B10489862236B10487B
:1029A000D862236B0F481863206B13464563266873
:1029B000206B321DFEF75CFC21686FF04000086060
:1029C00084F838502068416941F08001416100205D
:1029D00070BD012070BD022070BD0000914800084C
:1029E000BF4800080148000870477047FEE7000034
:1029F0003EB50021184800910191164A02910260EB
:102A00009215826001250573017502244FF460223E
:102A10000461C2614160FEF7ABF908B1FEF7C0F88E
:102A20000420CDE90005694602940B48FEF71EF923
:102A300008B1FEF7B5F80520CDE9000403200290A7
:102A400069460548FEF712F9002801D0FEF7A8F8FC
:102A50003EBD00000024014000010020154808B5DB
:102A6000416941F0010141614069002200F001002B
:102A7000009005210B20FEF703FE0B20FEF7F2FD70
:102A8000002201210D20FEF7FBFD0D20FEF7EAFDDF
:102A9000002203210E20FEF7F3FD0E20FEF7E2FDDB
:102AA000002202210F20FEF7EBFDBDE808400F20B9
:102AB000FEF7D8BD0010024030B5FBB00025779579
:102AC000012177A8789502F06EFB964C0121E06514
:102AD000799579A87A9502F066FB934D20660DF101
:102AE000FC0C95E80F008CE80F0000213FA802F0D5
:102AF00047FB1035606295E80F000DF5867C103DB0
:102B00008CE80F00002143A802F03AFB2035A062B8
:102B100095E80F000DF58E7C203D8CE80F0000211C
:102B200047A802F02DFB3035E06295E80F000DF567
:102B3000967C303D8CE80F0000214BA802F020FB72
:102B40004035206395E80F000DF59E7C403D8CE8F4
:102B50000F0000214FA802F013FB5035606395E889
:102B60000F000DF5A67C503D8CE80F00002153A806
:102B700002F006FB6035A06395E80F000DF5AE7C12
:102B8000603D8CE80F00002157A802F0F9FA70357B
:102B9000E06395E80F005BAD85E80F0000215BA8BE
:102BA00002F0EEFA604D206480350DF5BE7C95E8AC
:102BB0000F008CE80F0000215FA802F0E1FA103549
:102BC000606495E80F000DF5C67C103D8CE80F00A1
:102BD000002163A802F0D4FA2035A06495E80F0024
:102BE0000DF5CE7C203D8CE80F00002167A802F097
:102BF000C7FA3035E06495E80F000DF5D67C303D1E
:102C00008CE80F0000216BA802F0BAFA403520656D
:102C100095E80F000DF5DE7C403D8CE80F000021AB
:102C20006FA802F0ADFA5035606595E80F0073ADFE
:102C300085E80F00002173A802F0A2FA3A49A065C6
:102C40001C22E0316846FDF7C9FA0021684602F00F
:102C500023FB354920601C22FC3107A8FDF7BEFA92
:102C6000002107A802F018FB60601C222F490EA863
:102C7000FDF7B4FA00210EA802F00EFB2B49A0606C
:102C80001C221C3115A8FDF7A9FA002115A802F095
:102C900003FB2649E0601C2238311CA8FDF79EFA90
:102CA00000211CA802F0F8FA204920611C225431AE
:102CB00023A8FDF793FA002123A802F0EDFA1B499F
:102CC00060611C2270312AA8FDF788FA00212AA829
:102CD00002F0E2FA1549A0611C228C3131A8FDF7FF
:102CE0007DFA002131A802F0D7FA1049E0611C22D8
:102CF000A83138A8FDF772FA002138A802F0CCFA02
:102D000020620B48FEF72FFCA06803F0DDF9E068B5
:102D100003F0DAF9206903F0D7F9606903F0D4F918
:102D20007BB030BD100000204070000858710008D2
:102D30001C080020F0B585B000252B4800950195B2
:102D400002950395816941F020018161816901F05B
:102D500020010491816941F004018161816901F0E0
:102D600004010491816941F00801816180691F4F6C
:102D700000F008000490002202213846FEF7BEFB56
:102D8000012204213846FEF7B9FB02260124CDE9D1
:102D900000640296694638460396FEF7B3FA0420AB
:102DA000CDE90004CDE9024669463846FEF7AAFAA5
:102DB0004FF47040CDE90005694602943846FEF7AD
:102DC000A1FA200200900A48CDE9010469460948A9
:102DD000FEF798FA1020CDE90005694638460295BD
:102DE000FEF790FA05B0F0BD00100240000C014063
:102DF0000000111000080140094810B507490160A2
:102E00000321416040F271218160FEF783FB0028BD
:102E100003D0BDE81040FDF7C3BE10BD0030004038
:102E20001C080020104810B50E4901604FF4827153
:102E3000416000218160C1604FF400720161C0E90E
:102E400005122022C0E90721416281620A21C16284
:102E5000FFF730F8002803D0BDE81040FDF7A0BE12
:102E600010BD000000300140280A002010B58AB0D3
:102E7000002407941C2168460894FDF7C8F92348EC
:102E80004FF0804101604721C0E9011444F61F6101
:102E9000C0E9031480218161FFF717FB08B1FDF73A
:102EA0007FFE079407A919480894FFF7CAF808B1EC
:102EB000FDF776FE6020009040F2DC50CDE9010481
:102EC0000022694611480494FFF797FA08B1FDF70C
:102ED00067FE042269460D48FFF78FFA08B1FDF737
:102EE0005FFE082269460948FFF787FA08B1FDF737
:102EF00057FE0C2269460548FFF77FFA08B1FDF737
:102F00004FFE0248FFF730FA0AB010BDC00A002099
:102F100010B58AB0002407941C2168460894FDF778
:102F200076F91F481D4901600821C0E9011440F2EB
:102F3000F311C0E9031480218161FFF7C6FA08B1DB
:102F4000FDF72EFE079407A915480894FFF779F8B6
:102F500008B1FDF725FE6020CDE9000402940022AF
:102F600069460F480494FFF748FA08B1FDF718FEC8
:102F7000042269460A48FFF740FA08B1FDF710FE3F
:102F8000082269460648FFF738FA08B1FDF708FE3F
:102F90000348FFF7E9F90AB010BD00000004004043
:102FA000000B002010B58CB024216846FDF72FF9E6
:102FB00000241648099414490A94C0E900144EF6F6
:102FC0006021C0E90241046184610320CDE900046D
:102FD0000120CDE902040F210491CDE90540CDE99E
:102FE000074169460948FFF77AF808B1FDF7D8FDAF
:102FF000099409A905480A94FFF723F8002801D08D
:10300000FDF7CEFD0CB010BD00080040400B0020C5
:103010000C4810B50A4901604FF4E13141600021CC
:1030200081600C22C160C0E904128161C161FFF7B7
:1030300061FB002803D0BDE81040FDF7B1BD10BD15
:1030400000380140800B00200E4810B50C4901608B
:103050000D4941604FF48051816000214FF480623E
:10306000C0E903120422C0E90521C161FFF742FB58
:10307000002803D0BDE81040FDF792BD10BD000050
:1030800000480040C00B0020A0860100FEE70000C1
:1030900010B586B000200090019002900390134874
:1030A000816941F0040181618069114C00F00400E4
:1030B0000490002240212046FEF720FA00228021C1
:1030C0002046FEF71BFA4020009001200221CDE9A6
:1030D0000101039169462046FEF714F98020009013
:1030E00069462046FEF70EF906B010BD00100240FA
:1030F000000801402DE9F04387B04FF07C590021D2
:103100004D48FFF739FA04214B48FFF735FA0821FB
:103110004948FFF731FA1C216846FDF778F860202E
:10312000009000200221CDE90101049004226946AB
:103130004148FFF762F908B1FDF732FD00203F4931
:10314000FDF7AEFA3C4C80B22168C862E060FDF742
:1031500038FA4946FDF7BEF88046FDF7BAFA4FF057
:10316000FF352A46FDF70DFA354F4FF080463246BF
:103170003B46FDF794F9FDF793FA2168486321680F
:1031800088634046FDF759FA2168C863002120464C
:10319000FFF7D6F904212046FFF7D2F9082120468F
:1031A000FFF7CEF9FA20FEF79BF82648FEF7DBF989
:1031B000FA20FEF795F82348FEF7D5F9E8072249EB
:1031C000FDF76EFA216880B2C862E060FDF7F9F998
:1031D0004946FDF77FF88046FDF77BFA2A46FDF762
:1031E000D0F932463B46FDF75AF9FDF759FA216806
:1031F0004863216888634046FDF71FFA2168C86369
:10320000C820FEF76DF80F48FEF7ADF9C820FEF7AD
:1032100067F80C48FEF7A7F900212046FFF7ACF944
:1032200004212046FFF7A8F908212046FFF7A4F95A
:1032300007B0BDE8F0830000000B0020CFE0C340E2
:103240000AD7EB3F1C080020EB7ACD402DE9F04374
:1032500087B04FF07C595E48FEF785F900215D4844
:10326000FFF78AF904215B48FFF786F908215948DE
:10327000FFF782F91C216846FCF7C9FF6020009027
:1032800000200221CDE90101049004226946514841
:10329000FFF7B3F808B1FDF783FC00204E49FDF7B6
:1032A000FFF94C4C80B22168C862E060FDF789F9F3
:1032B0004946FDF70FF88046FDF70BFA4FF0FF3651
:1032C0003246FDF75EF9454F4FF080452A463B46B2
:1032D000FDF7E5F8FDF7E4F92168486321688863A4
:1032E0004046FDF7AAF92168C86300212046FFF790
:1032F00027F904212046FFF723F908212046FFF78C
:103300001FF9C820FDF7ECFF3148FEF72CF92846DD
:103310003349FDF7C5F9216880B2C862E060FDF766
:1033200050F94946FCF7D6FF8046FDF7D2F9324600
:10333000FDF727F92A463B46FDF7B1F8FDF7B0F94E
:1033400021684863216888634046FDF776F9216863
:10335000C863C820FDF7C4FF1D48FEF704F96800E4
:103360002049FDF79DF9216880B2C862E060FDF751
:1033700028F94946FCF7AEFF8046FDF7AAF9324628
:10338000FDF7FFF82A463B46FDF789F8FDF788F977
:1033900021684863216888634046FDF74EF921683B
:1033A000C8634FF49670FDF79BFF0948FEF7DBF802
:1033B00000212046FFF7E0F804212046FFF7DCF863
:1033C00008212046FFF7D8F807B0BDE8F0830000D9
:1033D0001C080020000B0020E11ACE400AD7EB3F6A
:1033E000B0A9CA40F407C4402DE9F05F00264FF0B1
:1033F000140B3448FEF7B7F83C213348FEF7E6FEDD
:10340000314F47F230593968C1F82490A7F1400490
:1034100000252068456321684FF4FA78C1F83880A8
:1034200021684FF4967AC1F83CA029462046FFF760
:1034300087F804212046FFF783F808212046FFF78C
:103440007FF85846FDF74CFF2068C5633868406A2E
:10345000A0EB090080B20A2800D901266420FDF7FC
:103460003FFF3968C1F824902168C1F83480206892
:1034700085632168C1F83CA05846FDF731FF2068FC
:10348000C5633868406AA0F5EA40303880B20A283F
:1034900000D9761C20684563206885632068C56371
:1034A000094800214038FFF767F8074804214038F1
:1034B000FFF762F8044808214038FFF75DF830460E
:1034C000BDE8F09F1C080020400B00207047000062
:1034D0000148FEF77FBC0000280A002038B50446EA
:1034E0001C4845F6C0510068B0FBF1F06421484328
:1034F0000090FEF709F8024620680099A1B1491E24
:10350000009181688907F8D5416821F0A0014160E8
:103510006421204600F028F818B1606D40F02000CA
:103520006065A06828B108E0616D41F02001616527
:10353000EAE72068C16880680090012084F85100A3
:10354000606D0028204602D0FEF742FC38BDFEF731
:1035500075FD38BD8400002010B5406A0021C18788
:10356000C186FEF735FC10BD38B50B460092044607
:103570000022802100F028F8002804D0606D40F07F
:1035800020006065032038BD016B02680988D160A6
:10359000016B891C0163C18E491EC186C18E002941
:1035A00001D1FFF79BBF7047016B02680978117367
:1035B000016B491C0163C18E491EC186C18E002961
:1035C00001D1FFF78BBF70472DE9F0411D4617462B
:1035D0000E460446DDF8188008E0681C06D0FDF7AA
:1035E00093FFA0EB0800A8420BD255B12068806879
:1035F00036EA000030D00020B842EED10020BDE80D
:10360000F0812068416821F0E00141606068B0F518
:10361000827F0BD1A068B0F5004F02D0B0F5806F6B
:1036200004D12068016821F040010160A06AB0F572
:10363000005F09D12068016821F400510160206811
:10364000016841F400510160012084F8510000201C
:1036500084F850000320D2E70120CDE770B586B092
:10366000002000900190029003901548816941F07C
:10367000080181618069134E00F008004FF48064F6
:103680000490002221463046FDF738FF0125CDE9A0
:10369000004502240294694630460394FDF732FE49
:1036A000002208213046FDF729FF08200090CDE9CF
:1036B0000154694630460394FDF724FE06B070BD00
:1036C00000100240000C01401CB500204F4CADF82A
:1036D0000000ADF804004FF400412046FDF702FF62
:1036E000F0B3002083464FF480412046FDF7FAFEF8
:1036F000B8B3002080464FF400512046FDF7F2FE9B
:1037000080B3002082464FF480512046FDF7EAFE48
:1037100048B300204FEA00093C4E4FF400413046C8
:10372000FDF7E0FE04464FF480413046FDF7DAFE37
:10373000054671143046FDF7D5FE0746B1143046F4
:10374000FDF7D0FE06465C4509D0224604212F48ED
:10375000FDF7D4FE2E48C068C4B102F0B5FC03E00A
:103760000CE00DE00EE00FE0454504D028488068ED
:103770007DB102F0A9FC012D0ED018E00120B1E7C7
:103780000120B7E70120BDE70120C3E702F01AFCE2
:10379000E5E702F017FC0AE04CB90220ADF804009E
:1037A00003461B48002201A9406B02F011FE574559
:1037B00004D017484069FFB102F086FC4E4512D094
:1037C00013480069DEB102F07FFC0020ADF8000074
:1037D00001F0C0F901F0C8F90D4802230022694642
:1037E000806C02F0F5FDA346A846BA46B1464FF4F8
:1037F000FA7001F0B2FC8FE702F0E4FBDEE702F0C2
:10380000E1FB0120ADF80000E6E70000000C0140FC
:10381000100000204FF4487404210F48FEF790FE7A
:1038200008210D48FEF78CFE0C210B48FEF788FEA0
:103830004FF4FA67084D7E106434A4B2BC4200D93C
:103840003446286884632868C46328680464304662
:1038500001F083FCF0E70000C00A00208CB00025D6
:10386000019502950595664EADF81C50ADF81850BF
:10387000ADF82050ADF824508DF828504FF0FF09D6
:103880000DF10408012209A9B06C02F0FDFEBDF89B
:103890002400E8B301F05EF9012208A9F06B02F000
:1038A000F3FEBDF82000012836D0012207A9706B75
:1038B00002F0EAFE012206A9B06B02F0E5FE012249
:1038C00005A9706A02F0E0FE059C14F1FF4F01D3D8
:1038D00084F00044BDF81800C0F10300FCF768FE56
:1038E0002146FCF7F7FC82460590002047463D54F0
:1038F000401CC0B20628FAD38DF8049001244FF082
:103900007E515046FCF78EFCFCF797FEC0B20FE0EC
:10391000FFE701F01FF96CE0002332220C210120A7
:10392000009501F05DF952E007F80490641CE4B2E0
:10393000A042F9D8601EFCF73BFE5146FCF7C7FCDD
:103940003049FCF7C7FCFCF778FE3855B84601242F
:10395000BDF81C00022806D0BDF81800022812D0BD
:1039600001281FD02FE008EB0407002317F8011DE2
:1039700060B20A4601F00AF93978C4F10D0040B28C
:1039800000230A461DE008EB0407002217F8013D5A
:10399000114660B201F0FAF8C4F10D003B7840B274
:1039A00000220DE008EB0407002317F8012D19464B
:1039B00060B201F0EBF83A78C4F10D0040B2002398
:1039C000002101F0E3F8641CE4B2062CC0D9012206
:1039D0000AA9F06C02F058FE9DF828004FF0000391
:1039E000009508B1FF2200E0192217210D2001F0F7
:1039F000F7F801F0B9F8322001F0AFFB42E7000020
:103A000010000020000081434FF0000896B0C2462D
:103A10008DF84880444646464546CDF84480CDF86A
:103A20005480CDF83480CDF83C80CDF84C8003F044
:103A30000BF91490FFF7D8FC10B1FFF707FC01E079
:103A4000FFF758FBFFF764FAFFF722FB3C21A4487D
:103A5000FEF7BCFBA3480168CD6301684D630068B5
:103A600085634FF081400A909F4809909F480890D5
:103A700008219C48FEF764FD994847F230510268DE
:103A800051629B48FDF76FFD9A48002213A9406AD6
:103A900002F0FAFD1398FCF71CFE974A974BFCF7CF
:103AA000FEFCFCF7DEFD07B26FF0A600874201DAEC
:103AB000074602E0A72F00DDA72789480168486A6A
:103AC000A0F5EA4030380FFA80FB47F230504862E8
:103AD000A7EB0B000FFA80F9C8F1000109EB4101D7
:103AE00001EB0A00FCF764FD0899FCF7F3FB079073
:103AF0004846FCF75DFD0999FCF7ECFB0546A9EB90
:103B00000800FCF755FD0A99FCF7E4FB2946FCF791
:103B100089FB0799FCF786FBFCF7DBFD2246334661
:103B2000FCF716FC04460D460022754BFCF7FCFD25
:103B300001D2734D00240022724B20462946FCF727
:103B4000DBFD01D26F4D00242E463FBB159818B106
:103B500000200F900D9021E00F98401C0F9032280C
:103B60001CD9BBF1000F06D1B8F1000F03D00D989E
:103B7000401CC0B20D900D9880B90022134620461B
:103B80002946FCF7B9FD604A01D2604B00E0604B6A
:103B900020463146FCF7DCFB04460E460022134665
:103BA000204631461597FCF7A7FD03D286F0004169
:103BB000204601E020463146564A574BFCF76FFC41
:103BC00001F060F905460022039113462046314674
:103BD000FCF792FD204602D286F0004100E031461B
:103BE0004E4A4F4BFCF75BFC01F04CF92A46039B15
:103BF000FCF74FFC4FF033324A4BFCF750FC0022ED
:103C0000494BFCF7A5FBFCF74BFD80B2B0F5FA7F02
:103C100001D340F2F31005460022134620463146F8
:103C2000FCF76AFD01D2012200E0002240213F485A
:103C3000FDF764FC0022134620463146FCF774FD74
:103C400001D8012200E0002280213848FDF756FC0F
:103C500024490968CD635846FCF7B8FC2246334630
:103C600007910390FCF71BFC00221346FCF744FD70
:103C700001D8012000E000208DF848001D480223F3
:103C8000002212A9C06C02F0A3FB1B4A1B4B079930
:103C90000398FCF704FCFCF75FFD11901548022324
:103CA000002211A9806D02F093FB21482149078071
:103CB000A1F800B020463146FCF7D3FC1E4908802D
:103CC0001E490D801E490D9808801E4914A8A1F8B0
:103CD00000A0C246C846142101F046FAD1E6000011
:103CE000400B0020000B0020CDCCCC3E9A99993E91
:103CF0001C080020100000200AD7A3703DAA4040F5
:103D000000907040009070C03BDF4F8D976EB23FC7
:103D1000976EB2BFD7A3703D0AD7C3BFE86A2BF630
:103D200097DD633F33A370400000E03F000801408F
:103D300004000020000000200200002006000020F7
:103D4000080000200A00002092B0142102A8FCF70D
:103D50005EFA002479480E940F94ADF82C40ADF82B
:103D60003040ADF82440ADF828400068C16841F00B
:103D70001001C160122202A97048FEF7A7FD8DF85C
:103D8000084004208DF8090020208DF80A008DF8E5
:103D90000B404FF0010A8DF80CA0F820684C8DF80C
:103DA0000D004FF4257B4FF0FF394946206E01F09E
:103DB00041FA9DF809009DF80A10C00840EA411038
:103DC0009DF80B20890941EA82019DF80C20C0F37F
:103DD0000A0041EA82219DF80D20C1F30A069109EB
:103DE000A0F58060C2F30115A6F58066584501DD97
:103DF000012200E00022DFF84CC1604502DA4FF0FA
:103E0000010801E04FF0000842445E4501DD012356
:103E100000E000231A44664501DA012300E0002394
:103E20001A44032901D9012300E000231A4429B1CF
:103E300000231A44032D03D9012302E00123F8E7EC
:103E400000231A44ADB30023D342AED101293ED0A2
:103E500000F109035246ADF82CA0132B00D200202C
:103E6000032929D00221ADF8301000BFFCF7AEFBCA
:103E7000354A364BFCF713FBFCF76EFC0E903046D0
:103E8000FCF796FB4946FCF757FA0F9002230022F5
:103E90000EA9206C02F09CFA022300220FA9606C8C
:103EA00002F096FA022300220CA9A06B02F090FA0D
:103EB00010E0FFE70123C7E7ADF83020FCF786FBF1
:103EC0004A46FCF75EFBFCF7CCFB00B2CEE70220D3
:103ED000ADF82C00022300220BA9606B02F078FAE7
:103EE000BD4227D0012D02D0022D12D022E00722A0
:103EF00009A9E06A02F0C8FBBDF8240038B100202F
:103F0000ADF824000223002209A9E06A10E0012094
:103F1000F6E707220AA9206B02F0B6FBBDF82800DD
:103F200050B10020ADF82800022300220AA9206B1E
:103F300002F04EFA2F4638E70120F3E7C00B0020CD
:103F4000100000206CFDFFFF5CACA8C1340C7F3F6B
:103F50008CB0002000900190029003900490059096
:103F6000ADF81800ADF81C00ADF82000ADF8240045
:103F7000ADF8280042480068C16841F01001C160F6
:103F8000102269463E48FEF7A1FC3E4E3E4C4FF0E3
:103F9000FF373946E06D01F04DF9012206A9606B4B
:103FA00002F072FBBDF818000228F2D19DF8000063
:103FB0004D28EED19DF801006F28EAD19DF802004E
:103FC0006528E6D1BDF80300642140BAA0F57A70F7
:103FD00090FBF1F0FCF7ECFA05460490BDF8050003
:103FE00040BAA0F57A70FCF7E3FA05900220ADF82C
:103FF0001C00B54201D385F000452448854205DC0C
:104000000223002204A9206C02F0E2F90598B042D4
:1040100001D380F000401E49884205DC02230022C3
:1040200005A9606C02F0D4F90223002207A9A06B55
:1040300002F0CEF99DF8070000B10120ADF8200094
:104040009DF8080000B10120ADF824009DF809009A
:1040500000B10120ADF828000223002208A9E06A7F
:1040600002F0B6F90223002209A9206B02F0B0F990
:10407000022300220AA9A06C02F0AAF989E7000035
:10408000800B002000008080100000200000A04075
:104090000000A5431FB500270125019740F2DC541D
:1040A0000097ADF80C5039463748FEF749FA3748C3
:1040B0000099FCF709F9FCF7C0FA334E3168486300
:1040C000BA46DFF8CCB0334F2046FCF77AFADFF877
:1040D000C880DFF8C890324CCDF808004FF48061FA
:1040E0003048FDF704FA4FF4FF7201A9206C02F08A
:1040F00065FBF0B10A226946606C02F05FFBC0B15B
:1041000000985946ADF80CA0884200D801460091AD
:10411000B94200DD394600910298FCF7D5F8FCF76A
:104120008CFA31684863019840450AD900201E493D
:1041300009E05046CDF804A0CDF800A0ADF80C5031
:10414000E4E7FCF7C6FAFCF707FB0190484502DDFF
:104150000020164901E0FCF7BCFAFCF7FDFA0190DB
:104160000223002201A9606A02F032F90223002230
:104170006946A06A02F02CF90223002203A9E06B31
:1041800002F026F9AAE70000C00A00200080BB4424
:104190000000A5C30000A5430000A0C00000A0408F
:1041A00010000020000C0140000014C0000014406A
:1041B00090B000240094019402940394ADF8104050
:1041C000ADF81440ADF81840ADF81C40ADF82040F3
:1041D000ADF82440604D614FADF82840ADF82C405B
:1041E000ADF830400D944FF04D084FF06F0A4FF08E
:1041F00065094FF47A766FF0070B0E94012204A93B
:10420000686A02F041FA012205A9A86A02F03CFAA4
:10421000012206A9686B02F037FA012207A9A86BF0
:1042200002F032FA012209A9E86B02F02DFA01220C
:1042300008A9A86D02F028FA01220AA9E86A02F08A
:1042400023FA01220BA9286B02F01EFA01220CA905
:10425000A86C02F019FA01220DA9286D02F014FAD7
:1042600001220EA9686D02F00FFABDF810008DF85A
:10427000008000EBC00101EB001006EB80008DF820
:1042800001A0010A8DF804008DF80290BDF820000D
:104290008DF8031000EBC00101EB001006EB80006D
:1042A000010A8DF805108DF80600BDF8140000F520
:1042B0007A70010A8DF807108DF8080039460D98BC
:1042C000FCF708F8FCF7B9F98DF8090039460E98A3
:1042D000FCF700F8FCF7B1F98DF80A008DF80B40F7
:1042E000BDF83000BDF82C10C007400E01F00101F0
:1042F00040EA4110BDF8281001F0010140EA011127
:10430000BDF81C0000F003020BEBC2000143BDF836
:10431000180002281DD0002241EA8201012800D0A5
:10432000002041EA4000BDF82410102201F00101F4
:1043300008438DF80C008DF80D408DF80E408DF877
:104340000F4069460648FEF70FFBFA2000F005FF14
:1043500054E70122E0E700001000002000002041A7
:10436000800B00208CB000200590664903916649BF
:104370008046CDE9000105460690ADF81C00ADF879
:1043800020006248FCF70EFC022000F0E6FE02224C
:1043900005A95E48FCF7C2FDFFF760F95C4C0221FD
:1043A0002046FDF7A4F808212046FDF7A0F83220AA
:1043B00000F0D3FE08212046FDF799F8322000F0E6
:1043C000CCFE02212046FDF792F8642000F0C5FEE5
:1043D00002212046FDF78BF8642000F0BEFE02218A
:1043E0002046FDF784F8A146DFF828B14A4F4B4C30
:1043F0004FF47A7A012207A9E06A02F045F9BDF884
:104400001C000221C2B24846FDF778F8BDF816003C
:10441000FCF7EDF8424A434BFCF741F85E465A463A
:104420003B46FBF795FFFCF797F90090022300222B
:104430006946206D01F0CCFFBDF81400FCF7D7F8F9
:10444000394A3A4BFCF72BF832463B46FBF780FFE4
:10445000FCF782F906900223002206A9606D01F0A4
:10446000B7FFDDE90001FCF793F902D202F0ECFBA3
:10447000054603990098FCF78BF902D202F0E4FBA1
:10448000804602F0E1FB401B5646B0420DD302F0DD
:10449000DBFB4FF4FA71B0FBF1F201FB1200642870
:1044A00001D2012210E000220EE002F0CDFBA0EBD1
:1044B0000800B0421CD302F0C7FBB0FBF6F106FBCC
:1044C00011003228EFD2ECE708214846FDF716F834
:1044D00017490098FBF7FEFEFCF796F8154908808F
:1044E000BDF8141014480180322000F036FE81E738
:1044F000012208A9206B02F0C7F8BDF82000C2B263
:10450000E2E70000000028410000204100010020F7
:10451000000C01407B14AE47E17A743F100000208C
:1045200010069E7B0F976C3FBEBC00FBE8D4753F26
:104530000000C8420C0000200E00002010B55020E2
:1045400080F31188BFF34F8FBFF36F8F02F082FBB0
:1045500018B104494FF080500860002080F31188A2
:1045600010BD000004ED00E030B593B0282168468E
:10457000FBF74DFE14210AA8FBF749FE00240F9417
:104580000920012110940090119412944FF480306E
:1045900004910691CDE901040225CDE907504FF4BD
:1045A000E01009906846FDF783FA0F20CDE90A056F
:1045B0006802CDE90C4002210AA80E94FDF76CF9BF
:1045C000A80311900F950FA8FDF7F0F813B030BDB8
:1045D0000D48016841F00101016041680B4A11403A
:1045E000416001680A4A11400160016821F480219C
:1045F0000160416821F4FE0141604FF41F018160B8
:104600000449C00308607047001002400000FFF832
:10461000FFFFF6FE08ED00E00148FDF7F2BD0000E7
:10462000800A0020F0B50268164B174C174D4FF06A
:104630008047984205D0B84203D0A04201D0A8429A
:1046400003D122F070064A683243984205D0B8423E
:1046500003D0A04201D0A84203D122F44074CA681A
:1046600022434C6922F08002224302608A68C262BF
:104670000A688262984201D109690163012141619E
:10468000F0BD0000002C0140000400400008004084
:1046900010B501F01F030121046A99408C430462A4
:1046A000016A9A401143016210BD000030B5026AF0
:1046B00022F001020262026A4368846924F07305F1
:1046C0000C682C4322F002058A682A430A4DA8424E
:1046D0000BD122F00805CA6823F440732A434D69C0
:1046E00022F004021D438B692B43436084614968B7
:1046F0004163026230BD0000002C014030B5026A07
:1047000022F010020262026A436884690D6824F490
:10471000E64444EA05248D6822F0200242EA0512AC
:104720000B4DA8420ED1CD6822F0800242EA05125C
:104730004D6923F4406343EA85038D6922F040020A
:1047400043EA85034360846149688163026230BD46
:10475000002C014030B5026A22F480720262036AC2
:104760004268C46923F4007324F073050C682C4379
:104770008D6843EA05230C4DA8420ED1CD6823F481
:10478000006343EA05234D6922F4405242EA0512D0
:104790008D6923F4806342EA05124260C46149686E
:1047A000C163036230BD0000002C014030B5026AD5
:1047B00022F480520262046A4268C3690D6823F4DD
:1047C000E64343EA05238D6824F4005444EA0534A3
:1047D000064DA84204D14D6922F4804242EA851276
:1047E0004260C36149680164046230BD002C01402D
:1047F00010B5406A0021C185C184FDF7F2FE10BDED
:1048000070B5446A2068406994F83910C0F3C0104C
:104810000025212904D118B1E584204600F062F872
:104820002068406994F83A10C0F38010222904D11E
:1048300018B1E585204600F047F8E06B40F0100025
:10484000E0632046FDF7CDFE70BD10B50146406A1D
:1048500009680968890613D40021C1850168CA68FE
:1048600022F48072CA6001684A6922F001024A613A
:1048700001684A6922F040024A61202180F83A101A
:10488000FEF770F810BD10B5406AFEF76CF810BD69
:1048900010B50146406A0968096889060CD40021F0
:1048A000C18401684A6922F080024A610068C168D7
:1048B00041F04001C16010BDFEF796F810BD10B583
:1048C000406AFEF792F810BD0168CA6822F490723F
:1048D000CA6001684A6922F001024A61202180F819
:1048E0003A1070470168CA6822F0C002CA602021ED
:1048F00080F83910704710B590F83A10222901D08D
:10490000022010BD8168B1F5805F11D001690029D6
:1049100001681FD0496801F07F03816A4A1C8262E6
:104920000B70C18D491E0904090CC18518D02BE0FC
:104930000269816A002A0268526805D0D2B20A80F0
:10494000816A491C8162ECE7C2F308020A80816A2D
:10495000891CF7E74A68816A4B1C83620A70E0E7AA
:104960000168CA6822F02002CA600168CA6822F49D
:104970008072CA6001684A6922F001024A612021FE
:1049800080F83A10FDF7EEFF002010BD2DE9F04150
:10499000044600680169E26821F440511143016155
:1049A0002169A0680843616908432168CA6841F227
:1049B0000C639A430243CA6020684169A26921F4EA
:1049C0004071114341611E492068642532268842A6
:1049D00002D1FDF727F801E0FDF714F800EBC00164
:1049E00001EB001160686FF018078000B1FBF0F276
:1049F000B2FBF5F2B1FBF0F37A4303EB8202B1FBB9
:104A0000F0F306EB0212B2FBF5F2B3FBF5F302F0A2
:104A1000F00202EB0312B1FBF0F3B1FBF0F0B0FBDC
:104A2000F5F0784303EB800006EB0010B0FBF5F0E7
:104A3000216800F00F0010448860BDE8F08100009C
:104A40000038014090F83910212901D00220704728
:104A50008168B1F5805F016A0BD04A1C026202686E
:104A600009785160C18C491E0904090CC1840ED01B
:104A700017E009880268C1F3080151600169002943
:104A8000016A02D0491C0162ECE7891CFBE701685E
:104A9000CA6822F08002CA600068C16841F0400123
:104AA000C160002070470000084808B50068016830
:104AB000C90606D50168406800900548006800F006
:104AC00091FBBDE808400148FDF78CBD800B00203C
:104AD0006C000020084808B500680168C90606D5C2
:104AE0000168406800900548006800F07BFBBDE865
:104AF00008400148FDF776BDC00B00207000002083
:104B0000FEE70000F0B5114A401EC0B292F800E086
:104B1000491E17E0002292260D4D00EBC0034927E5
:104B20004FF0240C03EB0E0402EB420323442B440E
:104B3000521C5E709F70D2B283F803C0032AF3D375
:104B4000401CC0B28842E5DDF0BD000074000020CA
:104B50002808002003488078401CC1B20120FFF7DC
:104B6000D1BF00007400002006484188007801EBA6
:104B7000C1010844401C044982B201F50070FDF7F0
:104B800017BA000074000020280800202DE9F00367
:104B90008946401E104944B2002009780F4E04EBAC
:104BA000C40592274FF0490C4FF0240805EB01058E
:104BB00000EB400129443144401C4F7081F802C091
:104BC000C0B281F803800328F2D3641C494660B266
:104BD000BDE8F00300F01AB8740000202808002097
:104BE0002DE9F0411E4617460D46C4B2DDF8188087
:104BF00007E043463246394660B2FFF7C7FF641C00
:104C0000E4B2AC42F5D9BDE8F0810000F8B5012866
:104C10008DF800208DF801108DF802307EDB4649BA
:104C2000401E44B20B78454900206A46165C3506A2
:104C30000AD504EBC4051D4400EB40073D446D1C40
:104C40004F5D47F040074F5575062D0E15542E0643
:104C50000AD504EBC4061E4400EB40073E44761C14
:104C60008F5D47F008078F556D062D0E15542E06E3
:104C70000AD504EBC4061E4400EB40073E44761CF4
:104C80008F5D47F001078F556D062D0E15542E06CA
:104C90000AD504EBC4061E4400EB40073E44B61C94
:104CA0008F5D47F020078F556D062D0E15542E068B
:104CB0000AD504EBC4061E4400EB40073E44B61C74
:104CC0008F5D47F004078F556D062D0E15542E0687
:104CD0000AD504EBC4061E4400EB40073E44F61C14
:104CE0008F5D47F080078F556D062D0E15542E06EB
:104CF0000AD504EBC4061E4400EB40073E44F61CF4
:104D00008F5D47F010078F556D0015542D060CD59B
:104D100004EBC4051D4400EB400600E00AE0354406
:104D2000ED1C4E5D46F020064E55401CC0B20328D7
:104D3000FFF47CAFF8BD00007400002028080020BC
:104D4000490050EAC12018BF04204A0D18BF40F0A6
:104D5000010040F2FF72B2EB515F08BF40F0020069
:104D6000012808BF052070470907090E002804DB49
:104D700000F1E02080F80014704700F00F0000F10F
:104D8000E02080F8141D70472DE9F0414F1E00EB24
:104D9000C7010446D1E9000115461E4637F0060258
:104DA0000DD02A463346FBF77AFB7F1E04EBC70380
:104DB000D3E90023FBF7CCFA37F00602F1D1022F3A
:104DC00025D0042F13D0062F18BFBDE8F0812A4646
:104DD0003346FBF764FBD4E90A23FBF7B9FA2A460A
:104DE0003346FBF75CFBD4E90823FBF7B1FA2A460C
:104DF0003346FBF754FBD4E90623FBF7A9FA2A460E
:104E00003346FBF74CFBD4E90423FBF7A1FA2A460F
:104E10003346FBF744FBD4E90223FBF799FA2A4611
:104E20003346FBF73CFBD4E90023BDE8F041FBF738
:104E30008FBA0122FBF7A5BB40F2013200204FF0F0
:104E4000E041FBF79EBB0000024A00201107FBF780
:104E500098BB000001FDFFFF02E008C8121F08C157
:104E6000002AFAD170477047002001E001C1121FEB
:104E7000002AFBD17047000001490860704700001C
:104E8000FC0000202DE9F04D894BCE0F21F00047AA
:104E900084B005460C469F4230D38648874211D3E2
:104EA000C7F31300284305D004B02846BDE8F04DF1
:104EB000FFF7BFBF002E1ABF00200146284604B0EE
:104EC000BDE8F08D7C4A2846FBF72EFC07D2022075
:104ED000FFF7D2FF04B0BDE8F04DFFF7ADBF774A52
:104EE000774B28462146FBF707FC07D20220FFF745
:104EF000C3FF04B0BDE8F04DFFF7A6BF7148B8424C
:104F000048D27148874215D27048784400EBC600F9
:104F10002146D0E900232846FBF7BBFACDE9000182
:104F20006B48784400EBC600D0E900ABC6F1010045
:104F3000861B26E0674A684B28462146FBF7AFFAF6
:104F4000664A7A4402EBC603D3E90023FBF700FA72
:104F5000FBF787FB0646FBF739FB07468846604AA6
:104F6000604BFBF79CFA2A462346FBF795FACDE9FE
:104F700000015D4A5D4B38464146FBF790FA824698
:104F80008B46DDE9000152465B46FBF782FA054697
:104F90000C4618E05648874214D2564A564B2846CB
:104FA0002146FBF7D5F9554E00223346FBF7BCFBF3
:104FB00008D204B0334628462146BDE8F04D002211
:104FC000FBF7C6B900262A46234610461946FBF7CA
:104FD00066FA804602464A480F460B460521784449
:104FE000FFF7D2FE42463B46FBF759FA2A462346D4
:104FF000FBF752FA07468846E6B302460B46002006
:105000004FF08041FBF745FACDE902013A464346AD
:1050100028462146FBF743FADDE90223FBF777FC3C
:1050200052465B46FBF738FADDE90023FBF731FA1D
:105030000022324BFBF730FA6FF47F729642A2BF28
:1050400001EB065104B0BDE8F08D4FF07A5202EB4F
:10505000065211442B4AFBF794FA04460D46FFF71B
:105060006FFE042808BFFFF7EFFE204604B0294674
:10507000BDE8F08DFFE700224FF08043FBF709FA0F
:1050800082460E463A46434628462146FBF707FA33
:1050900052463346FBF73BFC2A462346FBF7F9F919
:1050A00004B00022BDE8F04D144BFBF7F5B9000049
:1050B000422E86400000F07FEF39FAFE51302DD5A8
:1050C000104987C0422ED63FB2A2F03F3A230000DB
:1050D00032230000FE822B654715F73FF2220000C5
:1050E0000000E0FE422EE63F763C7935EF39EA3D9E
:1050F0000000303E9C7500883CE4377E0000F03FA5
:105100008622000018FCFFFFEFF30580002800D086
:1051100001207047FCF736FAFFF726FAFDF70AFE82
:10512000FDF79CFCFDF764FCFDF77CFEFDF79EFEA1
:10513000FDF7EEFEFDF736FFFDF76AFFFDF784FF92
:10514000FDF75AFEFDF7B8FC00F015F8FEE7014642
:105150000020842900D0C81C704710B500B9012078
:1051600000F02EFE002010BD10B501B9012100F0A5
:105170004DFE002010BD10B500F062FF002010BDF4
:1051800038B5D0E9011204683AB1C3682BB10020E8
:105190000090204601F0A4F838BD2046BDE8384014
:1051A000002201F079B838B543684BB1012909D123
:1051B0000320002200901146012001F091F838BD33
:1051C000012901D0002038BD03220021012001F077
:1051D00063F8040004D000231A46194601F0F8F8D9
:1051E000204638BD38B5002405460094FFF78CFFF3
:1051F00090B16946284601F0F9F9012801D0FF2055
:1052000038BD009888B10A494FF080500860BFF35C
:105210004F8FBFF36F8F08E000231A4619462846C8
:1052200001F0D6F8012800D0FF24204638BD000048
:1052300004ED00E038B505004FF0000000900FD0FD
:105240000024481C0ED001B10C46FFF75DFFB8B139
:105250006A460021284601F04DFB012816D104E0E2
:10526000802038BD4FF0FF34EFE7009880B1094946
:105270004FF080500860BFF34F8FBFF36F8F07E090
:105280002146284601F084FB012801D0FF2038BDCB
:10529000002038BD04ED00E07FB50D4604464169AD
:1052A000B0F9080081B1A16971B1FFF750FFD4E9ED
:1052B00005128DE80700D4E900102B46226901F0A1
:1052C0008AFC039004B070BDFFF741FF03A9CDE94C
:1052D0000001208A2B4682B2D4E9001001F04EFC76
:1052E000012801D00020EDE70398EBE72DE9F0411C
:1052F000184C0F46054666692068001D00F030FC1A
:1053000038B9206890F82C1001208840A1698143A9
:10531000A161681C07D137B12168BDE8F0410E4892
:10532000091D00F06DBC20683544B5424560216818
:1053300005D2A068BDE8F041091D00F049BC6068D5
:10534000091D00F045FC206B854200D22563BDE8B5
:10535000F081000088000020E80D00202DE9F041D8
:10536000054600F059FC2E4C2069401C2061206845
:105370002C4F10B1E06940B32DE025602069012871
:1053800029D1002606EB860007EB800000F012FC16
:10539000761C072EF6D323488C3000F00BFC2148F6
:1053A000A03000F007FC1F48B43000F003FC1D489B
:1053B000C83000F0FFFB1B48DC3000F0FBFB194855
:1053C0008C3060601430A06005E02068E96AC06A33
:1053D000884200D82560E06A401CE062E96A01204A
:1053E000A26988401043A06101EB810007EB8000B7
:1053F000291D00F005FC00F02FFCE06900280CD00E
:105400002068E96AC06A884207D207494FF0805095
:105410000860BFF34F8FBFF36F8FBDE8F0810000CE
:10542000880000200C0D002004ED00E038B500F0ED
:10543000F3FB104CA068C8B90F4800F0BBFB0E4846
:10544000143000F0B7FB0C482060143060600A4B49
:1054500000202833009003F148020C210A2000F0BC
:105460003FFFA06010B105A100F074FCBDE838401A
:1054700000F0F2BBC4000020FC0D0020546D7251FE
:105480000000000030B4026C0B46002A0BD0C1684B
:105490001144C1604468A14201D30168C16030BCBD
:1054A0001846FAF79BBE30BC70472DE9F041856B7A
:1054B000174604460026026C82B1C7B1E068FAF7CD
:1054C0008DFEE168206C091AE1602268914202D2E7
:1054D0006168081AE060022F16D017E02068A8B9AA
:1054E000606801F01BFC0646002060600EE0A068CA
:1054F000FAF774FE216CA0680844A06061688842D5
:1055000004D32068A06001E005B16D1E6D1CA56389
:105510003046BDE8F08110B5044690F8510058B10E
:1055200001280CD002280FD0502080F31188BFF33F
:105530004F8FBFF36F8FFEE7206B00F0A1FB20467B
:10554000BDE8104000F09CBB10BD000010484FF4B7
:10555000FF51420706D0C01D0D4920F00700411A37
:10556000C1F5FF510B4A00230144C2E90003083989
:10557000103A21F0070111604B600B600B1AC0E973
:10558000001393604FF000405360D06070470000FC
:10559000E40E0020E8000020144E154CA6F1C807C8
:1055A0004FF08058DFF84C9012E000BF00F034FB61
:1055B000F068C568281D00F0D3FA2069401E2061FC
:1055C000E068401EE06000F047FB2846FFF7A3FFBD
:1055D000E0680028EAD138680128F9D9C9F80080C4
:1055E000BFF34F8FBFF36F8FF2E70000D40D0020A1
:1055F0008800002004ED00E00346009829B1026015
:10560000C0E90F31012100F09FBE0060F8E72DE9ED
:10561000F0479A46DDE9098481466FF00303206B69
:1056200003EB82021044089D20F00706700707D0A4
:10563000502080F31188BFF34F8FBFF36F8FFEE7C9
:1056400023180A5C83F834200A5C12B1401C10282D
:10565000F6D3002784F84370072D00D30625E562B2
:10566000C4E91157201D00F0B0FA04F1180000F051
:10567000ACFA2461C5F107006462A061E76484F8B4
:10568000507052464946304600F058FA2060B8F152
:10569000000F01D0C8F80040BDE8F08730B51149CF
:1056A00000E011460A688242FBD34B685C188442D2
:1056B00003D1406818444860084643681C18944267
:1056C00009D1084C103C2468A24209D052681A44FF
:1056D00042600A6812680260814200D0086030BDF2
:1056E0000460F9E7E800002070B5002441600B4D2C
:1056F0000061914206D8D11A8269914206D2011DF9
:10570000686807E09A4203D2994201D3012403E07A
:10571000011D286800F05CFA204670BDC40000201E
:1057200010B5044600F078FAA06B28B15FF00004D1
:1057300000F092FA204610BD0124F9E730B587B099
:105740002C4D4EE0049800284BDB069C606910B19C
:10575000201D00F005FA02A800F0B8F802460498EF
:105760000A283ED2DFE800F00505053D263705058D
:105770003D260598A169034601442046FFF7B4FF82
:1057800000B3616A20468847E069012829D10020DA
:1057900000900598A169002342181946204601F09F
:1057A0001FFC78B9502080F31188BFF34F8FBFF3EF
:1057B0006F8FFEE70598A06128B181181346204637
:1057C000FFF792FF0DE0502080F31188BFF34F8F59
:1057D000BFF36F8FFEE794F8280010B9204600F061
:1057E0004FFA002204A9A86800F0E8FF0028A9D118
:1057F00007B030BDC40000202DE9FC410F4605462E
:1058000000F0C0FC01A800F061F80446019818B14E
:1058100001F054FBBDE8FC81224EAFB17068006816
:10582000A8B30027291B3A46B06800F0A7FA01F098
:1058300045FB0028EED11C494FF080500860BFF3B3
:105840004F8FBFF36F8FE5E7A542EBD801F036FB32
:1058500030682746C068C468201D00F081F9E069FF
:10586000012810D1A0692B4641193A462046FFF77E
:105870003BFF40B100200346014600902A462046E7
:1058800001F0AEFB20B1616A20468847C2E707E01D
:10589000502080F31188BFF34F8FBFF36F8FFEE767
:1058A0000127BFE7C400002004ED00E0064841687E
:1058B000096829B14168C968C968496801637047C6
:1058C0004FF0FF31FAE700008800002070B5054670
:1058D00001F0BAF9064E04463069844203D200F062
:1058E00009F8012000E0002028602046346170BDE6
:1058F000C4000020F8B5194D1FE0C068C4680668F0
:10590000201D00F02DF9616A20468847E0690128D2
:1059100013D1A0693044B04206D924616060211DD2
:10592000286800F055F908E0002003460146009081
:105930003246204601F054FB38B12868016800293E
:10594000DBD16968C5E90010F8BD502080F31188EB
:10595000BFF34F8FBFF36F8FFEE70000C40000203E
:1059600008484068401C4FF0500080F3118804D074
:10597000BFF34F8FBFF36F8FFEE7BFF34F8FBFF3C0
:105980006F8FFEE7F0000020002150B10A4B426902
:105990009A420FD1806AA3F1280290420AD040B106
:1059A00008E0502080F31188BFF34F8FBFF36F8F53
:1059B000FEE7012108467047E80D0020074C2068EB
:1059C000016841B1C0680021D0F80000FFF714FF62
:1059D000FFF7B4FEF3E701210020F7E7C400002041
:1059E0002DE9F041044600F017F994F9455004F10F
:1059F000240609E0606A48B1304601F025FA08B192
:105A000000F052FA6D1E6DB2002DF3DC4FF0FF3640
:105A100084F8456000F020F900F0FEF894F9445055
:105A200004F1100709E0206948B1384601F00CFA8A
:105A300008B100F039FA6D1E6DB2002DF3DC84F868
:105A40004460BDE8F04100F007B900002DE9F041E5
:105A50000546002700F096FB314E306808B9FFF785
:105A600075FDF06805424BD1C5B3083568070ED007
:105A700005F00700C0F108000544680707D0502072
:105A800080F31188BFF34F8FBFF36F8FFEE72DB305
:105A90007068854234D82248103001460C6801E015
:105AA00020460C466168A94202D221680029F7D13C
:105AB00031688C4224D0076821680160606808372B
:105AC000411B10290FD96019420708D0502080F3DC
:105AD0001188BFF34F8FBFF36F8FFEE710E0416077
